:1000000018308A0065290000FF00030E8301A1005B
:100010000A08A0008A010408A2007708A300780853
:10002000A4007908A5007A08A6007B08A70083131E
:1000300083128C308400001F1F280C1B3C288C303E
:100040008400801E25288C1A3F288B1E29280B1916
:100050004228220884002308F7002408F800250815
:10006000F9002608FA002708FB0020088A00210E64
:100070008300FF0E7F0E09008A110A16FC2E8A11DA
:100080000A1616298A110A12EB2B0A108A100A1175
:1000900082070A340D3443344F344E3454345234CE
:1000A0004F344C34203444344534203450344F34AD
:1000B00053344934433449344F344E34203420349B
:1000C0002D342034203450344F34543445344E349D
:1000D000433449344F344D344534543452344F341E
:1000E0000A340D3400340A108A100A1182070A34C7
:1000F0000D3443344F344E34543452344F344C3432
:10010000203444344534203450344F34533449344B
:10011000433449344F344E34203420342D34203489
:1001200020345434453443344C34413444344F3413
:1001300020343C342034523461346E3467346F34AC
:100140003A342034333430342A34203440342034A8
:100150003334333430342A3420343E340A340D34CA
:1001600000340A108A100A1182075234653466344A
:100170006534723465346E346334693461342034E8
:1001800050344F3453343A342034253473342034CB
:1001900000340A108A100A1182070A340D344334DD
:1001A0004F344E34543452344F344C34203444346D
:1001B00045342034563445344C344F344334493478
:1001C000443441344434203420342D342034203419
:1001D00050344F34543445344E34433449344F341E
:1001E0004D344534543452344F340A340D340034D1
:1001F0000000000000000A148A100A11023E0318D1
:100200008A0A82000A340D3443344F344E34543455
:1002100052344F344C342034443445342034563432
:1002200045344C344F3443344934443441344434F9
:10023000203420342D342034203454344534433495
:100240004C34413444344F3420343C342034523420
:1002500061346E3467346F343A34203428342D34AA
:1002600036343434723470346D34203440342034B5
:1002700036343434723470346D3429342034783464
:100280002034333432343E340A340D3400340A140A
:100290008A100A1182075234653466346534723428
:1002A00065346E34633469346134203456344534F3
:1002B0004C343A34203425347334203400340A1456
:1002C0008A100A1182070A340D340A34503461341A
:1002D000723461346D346534743472346F34733411
:1002E000203464346534203470346F3473346934AA
:1002F000633469346F346E34203461346634653469
:1003000063347434613464346F3473342034783437
:100310002034313430343034203470346134723429
:1003200061342034743465346E346534723420346E
:100330006D346134733420347234653473346F3403
:100340006C347534633469346F346E343A340A343F
:100350000D3400340A148A100A1182070A340D344D
:100360002034203420343E34203449346E34743404
:1003700072346F34643475347A34633461342034C5
:10038000423430340A340D3400340A148A100A110D
:1003900082070A340D342034203420344E3475342E
:1003A000653476346F342034763461346C346F3491
:1003B0007234203464346534203442343034203490
:1003C0007834203431343034303420343D342034E7
:1003D00025346C34643420340D3400340A148A100B
:1003E0000A11F53E03188A0A82000A340D340A34D1
:1003F00050346134723461346D3465347434723421
:100400006F34733420346434653420347634653486
:100410006C346F346334693464346134643420344C
:1004200061346634653463347434613464346F34F5
:100430007334203478342034313430343034203440
:1004400070346134723461342034743465346E3401
:100450006534723420346D34613473342034723432
:10046000653473346F346C347534633469346F3489
:100470006E343A340A340D3400340A108A140A11E6
:1004800082070A340D3420342034203420344E3492
:100490007534653476346F342034763461346C349A
:1004A0006F34723420346434653420344234303450
:1004B00020347834203431343034303420343D34F6
:1004C000203425346C34643420340D3400340A1064
:1004D0008A140A1182070A340D342034203420345F
:1004E0003E34203449346E34743472346F3464349E
:1004F00075347A34633461342034423431340A340C
:100500000D3400340A108A140A1182070A340D349B
:1005100020342034203420344E347534653476341D
:100520006F342034763461346C346F347234203458
:100530006434653420344234313420347834203407
:1005400031343034303420343D34203425346C346C
:10055000643420340D3400340A108A140A118207DE
:100560000A340D3450346134723461346D3465347E
:10057000743472346F34733420346434653420340A
:100580006C346F347334203463346F346E347434A9
:1005900072346F346C34613464346F347234653463
:1005A0007334203470346F347234203464346534DE
:1005B00066346534633474346F342E3400340A1076
:1005C0008A140A1182070A344D3465346E34753446
:1005D0003A3400340A108A140A11F13E03188A0AC8
:1005E00082000A340D34203420342034273431344E
:1005F0002734203450344F34533420342D343E3497
:10060000203450344F345434453400340A148A149E
:100610000A1182070A340D34203420342034273460
:1006200032342734203450344F34533420342D3472
:100630003E3420345434453443344C34413444340F
:100640004F3400340A148A140A1182070A340D3414
:1006500020342034203427343334273420345634A3
:1006600045344C3420342D343E34203450344F340F
:100670005434453400340A148A140A1182070A34A7
:100680000D342034203420342734343427342034BB
:10069000563445344C3420342D343E3420345434D4
:1006A000453443344C34413444344F340A340D34EB
:1006B00000340A148A140A1182070A340D342034D3
:1006C00020342034273435342734203445346434FE
:1006D0006934633469346F346E34203443346F3496
:1006E0006E34743472346F346C34613464346F3407
:1006F0007234203450344F34533400340A148A1482
:100700000A1182070A340D3420342034203427346F
:1007100036342734203445346434693463346934DE
:100720006F346E34203443346F346E347434723426
:100730006F346C34613464346F3472342034563422
:1007400045344C3400340A148A140A1182070A34DE
:100750000D342034203420342734373427342034E7
:1007600043346F346E34743472346F346C346134A7
:1007700064346F347234203470346F347234203403
:100780006434653466346534633474346F340034EF
:100790000A148A140A1182070A344D3465346E34FF
:1007A00075343A342034203420342034203420343A
:1007B000203420342034203420342034563445343E
:1007C0005234533449344F344E343A34203467343D
:1007D0003034343400348316690883120319F72B3C
:1007E000013A0319FF2B033A0319072C112C7D083A
:1007F0008800091509108316E90A8312112C7E0856
:100800008800091489108316E90A8312112C8316B3
:10081000680883128800891409118316E90183127C
:10082000112C0618202CAF09AF0803191C2C84309A
:10083000831687001F2C8312803083168700831253
:100840000B118A110A122928203083160317C100C0
:10085000BD01BE01BF01C0013808FA003708F90028
:100860003608F8003508F7000310771C452C3908C6
:10087000BD073A0803183A0FBE073B0803183B0FA1
:10088000BF073C0803183C0FC007C00CBF0CBE0CD0
:10089000BD0CFA0CF90CF80CF70CC10B342C8312BC
:1008A00003130034831603173B083F068039C50045
:1008B000BB1F652CB809B909BA09BB09B80A0319E5
:1008C000B90A0319BA0A0319BB0ABF1F722CBC0963
:1008D000BD09BE09BF09BC0A0319BD0A0319BE0A36
:1008E0000319BF0AF701F801F901FA01C001C101BA
:1008F000C201C3013F083E043D043C040319B02C6F
:100900002030C4000310B80DB90DBA0DBB0DC00DD9
:10091000C10DC20DC30D3F084302031D992C3E08B3
:100920004202031D992C3D084102031D992C3C08ED
:100930004002031CAA2C3C08C0023D08031C3D0FCA
:10094000C1023E08031C3E0FC2023F08031C3F0FBA
:10095000C3020314F70DF80DF90DFA0DC40B822C28
:10096000C51FBD2CF709F809F909FA09F70A031997
:10097000F80A0319F90A0319FA0AC0308400831728
:1009800083120313003403173908350283169000CD
:10099000831236088316910083123A08031C3A0F1B
:1009A000D22CD52C8316910283123708831692001D
:1009B00083123B08031C3B0FDE2CE12C83169202B2
:1009C000831238088316930083123C08031C3C0FE3
:1009D000EA2CED2C831693028312410845028316FC
:1009E0009400831246088316950083124208031C64
:1009F000420FFB2CFE2C83169502831247088316A8
:100A0000960083124308031C430F072D0A2D8316FB
:100A10009602831248088316970083124408031C29
:100A2000440F132D162D8316970283128316160872
:100A30009C0015089B0014089A009901831239083C
:100A40003D02F7003E08F8003A08031C3A0FF8028E
:100A50003F08F9003B08031C3B0FF9024008FA006D
:100A60003C08031C3C0FFA027A088316A0007908A0
:100A70009F0078089E0077089D001608BB001508A7
:100A8000BA001408B9001908B8002008BF001F08F0
:100A9000BE001E08BD001D08BC00831203135224B3
:100AA0007A08831603179D0079089C0078089B003C
:100AB00077089A001308B8001208B7001108B600AA
:100AC0001008B5001D08BC001C08BB001B08BA00BC
:100AD0001A08B9008312031324247A088316031713
:100AE0009400790893007808920077089100941B8D
:100AF000352E83123908350283169B00831236087F
:100B000083169C0083123A08031C3A0F882D8B2D04
:100B100083169C028312370883169D0083123B08BC
:100B2000031C3B0F942D972D83169D0283123808CA
:100B300083169E0083123C08031C3C0FA02DA32D9E
:100B400083169E0283124108450283169F0083127A
:100B500046088316A00083124208031C420FB12DE1
:100B6000B42D8316A002831247088316A1008312B6
:100B70004308031C430FBD2DC02D8316A102831211
:100B800048088316A20083124408031C440FC92D91
:100B9000CC2D8316A202831283162108A7002008F9
:100BA000A6001F08A500A401831239083D02F70022
:100BB0003E08F8003A08031C3A0FF8023F08F90013
:100BC0003B08031C3B0FF9024008FA003C08031CD9
:100BD0003C0FFA027A088316AB007908AA0078085D
:100BE000A9007708A8002108BB002008BA001F0848
:100BF000B9002408B8002B08BF002A08BE00290845
:100C0000BD002808BC008312031352247A088316FF
:100C10000317A8007908A7007808A6007708A500A0
:100C20001E08B8001D08B7001C08B6001B08B50058
:100C30002808BC002708BB002608BA002508B90010
:100C40008312031324247A08831603179F0079085C
:100C50009E0078089D0077089C001D08F7001E087C
:100C6000F8001F08F900FA01F82E8312390835023E
:100C70008316A700831236088316A80083123A0849
:100C8000031C3A0F442E472E8316A80283123708FE
:100C90008316A90083123B08031C3B0F502E532ED2
:100CA0008316A902831238088316AA0083123C080F
:100CB000031C3C0F5C2E5F2E8316AA028312410890
:100CC00045028316AB00831246088316AC008312DC
:100CD0004208031C420F6D2E702E8316AC02831245
:100CE00047088316AD0083124308031C430F792E77
:100CF0007C2E8316AD02831248088316AE00831241
:100D00004408031C440F852E882E8316AE028312DE
:100D100083162D08B3002C08B2002B08B100B001D7
:100D2000831239083D02F7003E08F8003A08031C18
:100D30003A0FF8023F08F9003B08031C3B0FF90289
:100D40004008FA003C08031C3C0FFA027A0883169C
:100D5000B7007908B6007808B5007708B4002D0808
:100D6000BB002C08BA002B08B9003008B8003708BF
:100D7000BF003608BE003508BD003408BC00831231
:100D8000031352247A0883160317B4007908B300BA
:100D90007808B2007708B1002A08B8002908B7001F
:100DA0002808B6002708B5003408BC003308BB008B
:100DB0003208BA003108B9008312031324247708DB
:100DC00083160317A800A8097808A900A9097908BB
:100DD000AA00AA097A08AB00AB092908F7002A087B
:100DE000F8002B08F900FA01F709F809F909FA09DE
:100DF000770883124107C9004208CA00780803181F
:100E0000780FCA074308CB0079080318790FCB077E
:100E10004408CC007A0803187A0FCC07CC1B182F93
:100E20004A08F7004B08F8004C08F900FA01372F80
:100E3000490883169100910983124A08831692008B
:100E4000920983124B0883169300930983124C086E
:100E50008316940094091208F7001308F800140888
:100E6000F900FA01F709F809F909FA0983127A0871
:100E7000CC007908CB007808CA007708C900490877
:100E8000F7004A08F8004B08F9004C08FA00031371
:100E90000034013003172E02B300B30803198A2F60
:100EA000330DF700F70DFC30F70577082C07F80035
:100EB0002D08FA000318FA0A7808B4007A08B50079
:100EC00001303302F700F70DF70DFC30F705770816
:100ED0002C07840083132D1883170008F700840A59
:100EE0000008F800840A0008F900840A0008FA00E3
:100EF0003408840083133518831777088000840A28
:100F000078088000840A79088000840A7A088000C2
:100F1000B3034D2F2C08840083132D1883172F083B
:100F20008000840A30088000840A31088000840A26
:100F3000320880000313003403172D08C3002C0867
:100F4000C2002F08C5002E08C4003008C6008A154C
:100F5000031300208A117A080317B9007908B80032
:100F60007808B7007708B6003208C3003108C2001D
:100F70003408C5003308C4003508C6008A150313B9
:100F800000208A117A080317BD007908BC00780890
:100F9000BB007708BA003A083602BE003708BF0027
:100FA0003B08031C3B0FBF023808C0003C08031C71
:100FB0003C0FC0023908C1003D08031C3D0FC102AF
:100FC0003E08F7003F08F8004008F9004108FA0021
:040FD00003130034D3
:101000000317C701C801C901CA01CF0146084F0231
:1010100003187C294F0DF700F70DFC30F705770812
:10102000420784008313431883170008D000840A02
:101030000008D100840A0008D200840A0008D30006
:101040004F0DF700F70DFC30F705770844078400D3
:101050008313451883170008F700840A0008F80076
:10106000840A0008F900840A0008FA00D700790809
:10107000D6007808D5007708D400D9010408D80034
:101080005910831B591453088316B8008312520851
:101090008316B700831251088316B60083125008D6
:1010A0008316B500831257088316BC0083125608B6
:1010B0008316BB00831255088316BA0083125408A6
:1010C0008316B9008A118312031324248A15031787
:1010D000580884008313591883177A08D4007908B4
:1010E000D3007808D2007708D100D41BEA284F0D2E
:1010F000F700F70DFC30F7057708420784008313EB
:10110000431883170008D500840A0008D600840A13
:101110000008D700840A0008D8004F0DF700F70D2B
:10112000FC30F705770844078400831345188317BC
:101130000008F700840A0008F800840A0008F90093
:10114000840A0008FA00DD007908DC007808DB007A
:101150007708DA00DF010408DE005F10831B5F14EC
:1011600058088316B800831257088316B7008312F5
:1011700056088316B600831255088316B5008312ED
:101180005D088316BC0083125C088316BB008312C3
:101190005B088316BA0083125A088316B9008A11B5
:1011A0008312031324248A1503175E088400831313
:1011B0005F1883177A08D9007908D8007808D70013
:1011C0007708D6005708F7005808F8005908F900C2
:1011D000FA0164294F0DF700F70DFC30F705770889
:1011E000420784008313431883170008DC00840A35
:1011F0000008DD00840A0008DE00840A0008DF0021
:101200004F0DF700F70DFC30F70577084407840011
:101210008313451883170008F700840A0008F800B4
:10122000840A0008F900840A0008FA00E30079083B
:10123000E2007808E1007708E000E5010408E40036
:101240006510831B65145F088316B80083125E085F
:101250008316B70083125D088316B60083125C08FC
:101260008316B500831263088316BC0083126208DC
:101270008316BB00831261088316BA0083126008CC
:101280008316B9008A118312031324248A150317C5
:10129000640884008313651883177708DD00DD096F
:1012A0007808DE00DE097908DF00DF097A08E0004F
:1012B000E0095E08F7005F08F8006008F900FA012D
:1012C000F709F809F909FA097A08CE007908CD007A
:1012D0007808CC007708CB004B08C7074C080318E8
:1012E0004C0FC8074D0803184D0FC9074E080318C7
:1012F0004E0FCA07CF0A06284708F7004808F8002B
:101300004908F9004A08FA00031300341030F800C5
:101310001F08C73978049F001F151F198D291E0843
:10132000FA0083167A08F800F901FA017A08CF006A
:101330007908CE007808CD001E08CC000D30F700EB
:10134000F70BA02983123008023C031DF5298316F0
:101350004F080317B80003134E080317B700031311
:101360004D080317B60003134C080317B500BC0162
:10137000BB010130BA00B9018A118312031324247E
:101380008A157A080317B0007908AF007808AE0014
:101390007708AD003008B8002F08B7002E08B60057
:1013A0002D08B500BC01BB012830BA00B901C0014D
:1013B0000330BF00FC30BE00BD01C401C301C20147
:1013C000C101C8010130C7006830C600C5018A11DB
:1013D0000313C3248A157A088316D3007908D20030
:1013E0007808D1007708D00083123008043C031D30
:1013F000482A83164F080317B80003134E08031733
:10140000B70003134D080317B60003134C08031766
:10141000B500BC01BB010130BA00B9018A118312C9
:10142000031324248A157A080317B0007908AF0043
:101430007808AE007708AD003008B8002F08B70074
:101440002E08B6002D08B500BC01BB011E30BA0045
:10145000B901C0010330BF00E130BE00BD01C401CD
:10146000C3019630C200C101FF30C800C7006A3016
:10147000C600C5018A110313C3248A157A0883168E
:10148000D3007908D2007808D1007708D000831201
:101490008316500848028312CF008316490883122E
:1014A000D00083165108031C510F572A5A2A831261
:1014B000D00283164A088312D10083165208031CF7
:1014C000520F632A662A8312D10283164B088312B5
:1014D000D20083165308031C530F6F2A722A8312FB
:1014E000D20283168312520883160317B8008312A0
:1014F0000313510883160317B70083120313500810
:1015000083160317B600831203134F0883160317BD
:10151000B500BC01BB010130BA00B9018A118312C8
:10152000031324248A157A08D2007908D100780898
:10153000D0007708CF000317AD01D830AC000230DF
:10154000AE00031352080317B20003135108031728
:10155000B100031350080317B00003134F0803171B
:10156000AF008A11031349278A150317AD01E03034
:10157000AC000130AE00B201B101B001AF018A117F
:10158000031349278A150317AD01D830AC00AF010A
:10159000BC30AE000230B000B201E030B100B401A6
:1015A000C430B3000130B5008A1103139C278A159B
:1015B0007A088316E3007908E2007808E1007708EA
:1015C000E00083123008023C031D202B83166308C1
:1015D00083120317B80083160313620883120317DC
:1015E000B70083160313610883120317B60083162E
:1015F0000313600883120317B500BC01BB0112304E
:10160000BA00B901FF30C000BF00EE30BE00BD011E
:10161000C401C301C201C101C8010330C700FF30CA
:10162000C600C5018A110313C3248A157A0803175B
:10163000AB007908AA007808A9007708A80003136E
:101640003008043C031D5E2B8316630883120317C6
:10165000B80083160313620883120317B7008316BA
:101660000313610883120317B6008316031360087F
:1016700083120317B500BC01BB011030BA00B901D9
:10168000FF30C000BF00EC30BE00BD01C40103301C
:10169000C300FF30C200C101C801C701C601C501B6
:1016A0008A110313C3248A157A080317AB0079083B
:1016B000AA007808A9007708A80003130317AB1B3A
:1016C000782BAB08031D722BAA08031D722B290867
:1016D000023C0318782BFF3A031D722B2808FE3CAE
:1016E0000318782BAB01AA010330A900FF30A80032
:1016F000AB1B872BAB08031D8C2BAA08031D8C2B5F
:10170000A908031D8C2B2808143C031C8C2BAB014F
:10171000AA01A9011430A8002908F9002808F80036
:10172000F90CF80CF90CF80CF90C78080313950077
:10173000F90C790C3039F7001708CF397704970086
:1017400000340830F8001F08C73978049F000D30B6
:10175000F700F70BA92B1F151F19AC2B1E08FA0059
:1017600083167A08F800F901FA017A08D700790897
:10177000D6007808D5001E08D4000D30F700F70B0E
:10178000BF2B57080317B800031356080317B700F9
:10179000031355080317B600031354080317B500C5
:1017A000BC01BB010130BA00B9018A1183120313D5
:1017B00024248A157A080317AC007908AB0078084E
:1017C000AA007708A9002C08B8002B08B7002A083F
:1017D000B6002908B500BC01BB011F30BA00B90131
:1017E000C0010330BF00E530BE00BD01C401C3012C
:1017F0009630C200C101FF30C800C7006A30C60081
:10180000C5018A110313C3248A157A088316CB00F5
:101810007908CA007808C9007708C8004809E400B8
:101820004909E5004A09E6004B09E700E40A031903
:10183000E50A0319E60A0319E70A83128621003430
:101840000317B001AE010A30AF00AD01AC01AB012E
:10185000AA0128082904031D322CF701F801F90117
:10186000FA019D2D3008B00A280784008313291837
:1018700083170008B10031082D3C031D4B2C0130AB
:10188000AE003008B00A2807840083132918831794
:101890000008B100582C31082B3C031D582C30088F
:1018A000B00A280784008313291883170008B100A1
:1018B00031082F3C0318842D3108393C031C842D3A
:1018C0003108303C031D842C300828078400831322
:1018D000291883170008783C0319782C300828074A
:1018E00084008313291883170008583C031D842C97
:1018F0001030AF00B00A3008B00A28078400831304
:10190000291883170008B1002F080A3C031DDB2C9F
:1019100031082F3C0318DA2C3108393C031CDA2C2F
:1019200003102A0DB3002B0DB4002C0DB5002D0DA6
:10193000B6002A0DF7002B0DF8002C0DF9002D0D27
:10194000FA00F70DF80DF90DFA0DF70DF80DF90D78
:10195000FA0DF830F7053308F70734080318340F89
:10196000F80735080318350FF90736080318360F3E
:10197000FA077A08AD007908AC007808AB00770860
:10198000AA0030303102AA07003003180130AB073B
:10199000003003180130AC07003003180130AD07E8
:1019A0003008B00A28078400831329188317000819
:1019B000B100882C842D2F08103C031D842D310884
:1019C000603C0318EA2C31087A3C031CEA2C3108ED
:1019D000DF39EB2C3108B10031082F3C0318F42C0F
:1019E0003108393C0318FC2C3108403C0318842D85
:1019F0003108463C031C842D31082F3C0318392D37
:101A00003108393C031C392D2A0DB3002B0DB400CD
:101A10002C0DB5002D0DB600B30DB40DB50DB60DE2
:101A2000B30DB40DB50DB60DB30DB40DB50DB60DAA
:101A3000F030B305303031023307F7003408F800D6
:101A4000003003180130F8073508F900003003189A
:101A50000130F9073608FA00003003180130FA07A0
:101A60007A08AD007908AC007808AB007708AA00C6
:101A70006E2D2A0DB3002B0DB4002C0DB5002D0DCD
:101A8000B600B30DB40DB50DB60DB30DB40DB50D57
:101A9000B60DB30DB40DB50DB60DF030B305413034
:101AA00031020A3E3307F7003408F800003003180B
:101AB0000130F8073508F900003003180130F90744
:101AC0003608FA00003003180130FA077A08AD0032
:101AD0007908AC007808AB007708AA003008B00A93
:101AE000280784008313291883170008B100603C7D
:101AF0000318812D31087A3C031C812D3108DF3910
:101B0000822D3108B100EC2C2F080A3C031D952DC5
:101B10002E0B952DAA09AB09AC09AD09AA0A031928
:101B2000AB0A0319AC0A0319AD0A2A08F7002B08FF
:101B3000F8002C08F9002D08FA00031300340030D7
:101B4000F8001F08C73978049F001F151F19A62D1C
:101B50001E08FA0083167A08F800F901FA017A08DB
:101B6000A3007908A2007808A1001E08A0000D308B
:101B7000F700F70BB92D23080317B8000313220849
:101B80000317B700031321080317B6000313200837
:101B90000317B500BC01BB010130BA00B9018A11BD
:101BA0008312031324248A157A080317B0007908D6
:101BB000AF007808AE007708AD003008B8002F08F5
:101BC000B7002E08B6002D08B500BC01BB01C83017
:101BD000BA00B901C0010330BF003730BE00BD01FB
:101BE000FF30C400C300C230C200C101C801C70138
:101BF0003E30C600C5018A110313C3248A157A0832
:101C00008316A7007908A6007808A5007708A40025
:101C100083123008033C031D792E0830F8001F089A
:101C2000C73978049F000D30F700F70B152E1F15EC
:101C30001F19182E1E08FA0083167A08F800F901F9
:101C4000FA017A08AB007908AA007808A9001E08F2
:101C5000A8000D30F700F70B2B2E2B080317B80048
:101C600003132A080317B700031329080317B60044
:101C7000031328080317B500BC01BB010130BA00EB
:101C8000B9018A118312031324248A157A080317D1
:101C9000B0007908AF007808AE007708AD003008D2
:101CA000B8002F08B7002E08B6002D08B500BC01FB
:101CB000BB011F30BA00B901C0010330BF00E530DD
:101CC000BE00BD01FF30C400C300A630C200C10188
:101CD000C801C7015A30C600C5018A110313C324C5
:101CE0008A157A08F6007908F5007808F400770874
:101CF000F3008316240873028312CF007408D00007
:101D000083162508031C250F862E892E8312D002E8
:101D1000831675088312D10083162608031C260F2C
:101D2000922E952E8312D102831676088312D2004A
:101D300083162708031C270F9E2EA12E8312D20282
:101D400083168312520883160317B80083120313F5
:101D5000510883160317B700831203135008831624
:101D60000317B600831203134F0883160317B50039
:101D7000BC01BB010130BA00B9018A1183120313FF
:101D800024248A157A08D2007908D1007808D00076
:101D90007708CF000317AD01AC30AC000230AE00C5
:101DA000031352080317B200031351080317B100BD
:101DB000031350080317B00003134F080317AF00B5
:101DC0008A11031349278A150317AD01B430AC00FB
:101DD0000230AE00B201B101B001AF018A110313AC
:101DE00049278A150317AD01AC30AC00AF01633051
:101DF000AE000230B000B201B430B100B4016B30BB
:101E0000B3000230B5008A1103139C278A157A08A3
:101E10008316B7007908B6007808B5007708B400D3
:101E2000370883120317B80083160313360883128A
:101E30000317B70083160313350883120317B60080
:101E400083160313340883120317B500BC01BB01CA
:101E50001230BA00B901FF30C000BF00EE30BE0042
:101E6000BD01C401C3011430C200C101C801033067
:101E7000C700EB30C600C5018A110313C3248A15BD
:101E80007A080317AB007908AA007808A900770838
:101E9000A800AB1B622FAB08031D5C2FAA08031D13
:101EA0005C2F2908023C0318622FFF3A031D5C2FA8
:101EB0002808EA3C0318622FAB01AA010330A900ED
:101EC000EB30A800AB1B712FAB08031D762FAA08BF
:101ED000031D762FA908031D762F2808143C031C28
:101EE000762FAB01AA01A9011430A8002908F90036
:101EF0002808F800F90CF80CF90CF80CF90C780823
:101F000003139500F90C790C3039F7001708CF3915
:101F1000770497000034F701F801F901FA0103177B
:101F2000BD01BE01BF01C0013C083B043A043904B5
:101F30000319CA2F2030C1000310B50DB60DB70D1F
:101F4000B80DBD0DBE0DBF0DC00D3C084002031DF8
:101F5000B32F3B083F02031DB32F3A083E02031D77
:101F6000B32F39083D02031CC42F3908BD023A08BB
:101F7000031C3A0FBE023B08031C3B0FBF023C0888
:101F8000031C3C0FC0020314F70DF80DF90DFA0DF8
:101F9000C10B9C2F3D30840083170313003483163C
:101FA000EE016D086E020318E92F6E0DF700F70DB4
:101FB000FC30F70577086B07840083136C188317D0
:101FC0008001840A8001840A8001840A8001EE0A6B
:061FD000D12F8312003442
:102000000830F8001F08C73978049F000D30F7002A
:10201000F70B08281F151F190B281E08FA00831636
:102020007A08F800F901FA017A08AB007908AA00E9
:102030007808A9001E08A8000D30F700F70B1E282D
:102040002B080317B80003132A080317B70003135C
:1020500029080317B600031328080317B500BC01AD
:10206000BB010130BA00B9010A1283120313242400
:102070000A167A080317AC007908AB007808AA00A2
:102080007708A9002C08B8002B08B7002A08B6006A
:102090002908B500BC01BB011F30BA00B901C0015D
:1020A0000330BF00E530BE00BD01FF30C400C300F7
:1020B000C430C200C101C801C7013C30C600C5011F
:1020C0000A120313C3240A167A08F6007908F500E9
:1020D0007808F4007708F30076088316E70075089F
:1020E000E6007408E5007308E4000A128A158312FA
:1020F0009F250A168A11003404080317AD00AC1F8F
:102100008E28AD03AD16A909AA09AB09AC09A90A25
:102110000319AA0A0319AB0A0319AC0A3B30B4002D
:102120009A30B300CA30B200B1010A30AF002C08B7
:10213000B8002B08B7002A08B6002908B5003408F3
:10214000BC003308BB003208BA003108B9000A12DB
:102150008A1503138B270A168A1100080317A90092
:10216000840A0008AA00840A0008AB00840A000858
:10217000AC00F708031DCF282F08013A0319CF2818
:102180002D080319D1280F392F020319C928031864
:10219000F628AD1BF6282D1BD1282030EF28203043
:1021A000AD05AD1EDF28AD127708AD002D3003134D
:1021B0000C1ED828990003172D08F700AD01303008
:1021C000AD1EEF28AD127708AD002D3003130C1EA5
:1021D000E728990003172D08F700AD013030F70705
:1021E000770803130C1EF228990003173408B8006F
:1021F0003308B7003208B6003108B500BC01BB0196
:10220000BA010A30B9000A128A1503138B270A167D
:102210008A117A080317B4007908B3007808B2006D
:102220007708B100AF0B9728031300348616831686
:10223000861283128C1EF42E8C1E1C291A0803177A
:10224000A7002708313A031303193929033A031960
:10225000CB29013A0319C42A073A0319AB2B013AD7
:102260000319F32C033A03196D2D013A03194C2E6F
:10227000622E0317A80128080A12031345200A1624
:102280000317A80AF70003130C1E442999002930EC
:1022900003172802031D3B2904300313B000FC0878
:1022A000031954290030552901300317A8007C0870
:1022B000023C03195D2900305E290130280403190E
:1022C0006A2983160313BF01BE01BD014730BC005C
:1022D000831203177C0BBA2903135E0883160317B6
:1022E000B800831203135D0883160317B700831227
:1022F00003135C0883160317B600831203135B08ED
:1023000083160317B500BC01BB010130BA00B90147
:102310000A128312031324240A167A088316BF00B4
:102320007908BE007808BD007708BC003F08031795
:10233000BB0003133E080317BA0003133D0803173D
:10234000B90003133C080317B800BF01BE01BD016B
:102350006430BC000A128312031352240A167A084E
:102360008316BF007908BE007808BD007708BC005E
:102370008312031783160313C301C201C101C001F5
:10238000C701C601C501C4010A128A158312A1231F
:102390000A168A11F42E0317A80128080A1203133B
:1023A00073200A160317A80AF70003130C1ED62978
:1023B0009900393003172802031DCD290230031379
:1023C000B0003130840083138403840A8C1EE62914
:1023D0001A0880000D300002031DE5298001031753
:1023E000A80128080A120313B1200A160317A80A25
:1023F000F70003130C1EFA29990010300317280266
:10240000031DF129313084008313003000040319C7
:10241000112A000803130C1E0B2A9900840A0317C3
:10242000052A203003130C1E132A99000317A90153
:102430003130A8000A128A15031320240A168A11C3
:102440007A08D6007908D5007808D4007708D30038
:1024500056088316E700831255088316E600831298
:1024600054088316E500831253088316E400831290
:1024700056088316CB00831255088316CA008312B0
:1024800054088316C900831253088316C800FC0839
:1024900003194C2A00304D2A013083120317A8007B
:1024A0007C08023C0319562A0030572A01302804C0
:1024B0000319632A83160313BF01BE01BD01473010
:1024C000BC00831203177C0BB32A03135E08831628
:1024D0000317B800831203135D0883160317B700B0
:1024E000831203135C0883160317B60083120313C9
:1024F0005B0883160317B500BC01BB010130BA00AD
:10250000B9010A128312031324240A167A088316C7
:10251000BF007908BE007808BD007708BC003F08FE
:102520000317BB0003133E080317BA0003133D084B
:102530000317B90003133C080317B800BF01BE011D
:10254000BD016430BC000A128312031352240A1620
:102550007A088316BF007908BE007808BD007708A6
:10256000BC008312031783160313C301C201C10108
:10257000C001C701C601C501C4010A128A15831230
:1025800086210A168A11F42E0317A80128080A12B8
:102590000313C9200A160317A80AF70003130C1E19
:1025A000CF2A99002A3003172802031DC62A0330B8
:1025B0000313B000FC080319DF2A0030E02A0130C1
:1025C0000317A8007C0BE52AE72A0030E82A01302F
:1025D00028040319F82A0313E601E501E4015C303D
:1025E000E300FF30EA00E900E800AC30E700031741
:1025F0007C08023C031D9E2B03135E088316031701
:10260000B800831203135D0883160317B700831203
:1026100003135C0883160317B600831203135B08C9
:1026200083160317B500BC01BB010130BA00B90124
:102630000A128312031324240A167A08E600790882
:10264000E5007808E4007708E300660883160317BE
:10265000BB0083120313650883160317BA008312A5
:102660000313640883160317B90083120313630866
:1026700083160317B800BF01BE01BD016430BC0062
:102680000A128312031352240A167A08E600790804
:10269000E5007808E4007708E30062088316031772
:1026A000B80083120313610883160317B70083125F
:1026B0000313600883160317B600831203135F0821
:1026C00083160317B500BC01BB010130BA00B90184
:1026D0000A128312031324240A167A08EA007908DE
:1026E000E9007808E8007708E7006A08831603170E
:1026F000BB0083120313690883160317BA00831201
:102700000313680883160317B900831203136708BD
:1027100083160317B800BF01BE01BD016430BC00C1
:102720000A128312031352240A167A08EA0079085F
:10273000E9007808E8007708E70003170313EE01C3
:10274000ED010130EC00EB01FF30F200F100F00090
:10275000EF010020F42E0317A80128080A12031322
:10276000F8200A160317A80AF70003130C1EB62B4D
:102770009900443003172802031DAD2B01300313C9
:10278000B0003130840083138403840A8C1EC62B6E
:102790001A0880000D300002031DC52B80010317AD
:1027A000A80128080A12031347210A160317A80ACA
:1027B000F70003130C1EDA2B9900103003172802C0
:1027C000031DD12B31308400831300300004031922
:1027D000F12B000803130C1EEB2B9900840A03173E
:1027E000E52B203003130C1EF32B99000317A901CE
:1027F0003130A8000A128A15031320240A168A1100
:102800007A08D6007908D5007808D4007708D30074
:1028100056088316E700831255088316E6008312D4
:1028200054088316E500831253088316E4008312CC
:102830005608F6005508F5005408F4005308F30054
:10284000FC080319252C0030262C01300317A800A2
:102850007C0B2B2C2D2C00302E2C0130280403193E
:102860003E2C0313E601E501E4015C30E300FF3098
:10287000EA00E900E800AC30E70003177C0BE22C2B
:1028800003135E0883160317B800831203135D0851
:1028900083160317B700831203135C08831603170C
:1028A000B600831203135B0883160317B500BC013F
:1028B000BB010130BA00B9010A12831203132424A8
:1028C0000A167A08E6007908E5007808E400770837
:1028D000E300660883160317BB0083120313650821
:1028E00083160317BA0083120313640883160317B1
:1028F000B90083120313630883160317B800BF01DE
:10290000BE01BD016430BC000A12831203135224BD
:102910000A167A08E6007908E5007808E4007708E6
:10292000E300620883160317B800831203136108DB
:1029300083160317B7008312031360088316031767
:10294000B600831203135F0883160317B500BC019A
:10295000BB010130BA00B9010A1283120313242407
:102960000A167A08EA007908E9007808E80077088A
:10297000E7006A0883160317BB0083120313690874
:1029800083160317BA00831203136808831603170C
:10299000B90083120313670883160317B800BF0139
:1029A000BE01BD016430BC000A128312031352241D
:1029B0000A167A08EA007908E9007808E80077083A
:1029C000E70003170313EE01ED010130EC00EB010A
:1029D000FF30F200F100F000EF010A128A159F2586
:1029E0000A168A11F42E0130FC000317A8012808EA
:1029F0000A1203135F210A160317A80AF70003132C
:102A00000C1E002D9900463003172802031DF72CD9
:102A1000A80128080A120313AA210A160317A80AF4
:102A2000F70003130C1E122D99001630031728020D
:102A3000031D092D3130840083138403840A03139A
:102A40008C1E202D1A0880000D30000203192A2D3B
:102A500003171E2D80010317A9013130A8000A12A7
:102A60008A15031320240A168A117A08DE007908D1
:102A7000DD007808DC007708DB000317A8012808D0
:102A80000A120313C5210A160317A80AF700031335
:102A90000C1E482D99001F3003172802031D3F2DDF
:102AA0004130840003135E080317AC0003135D0874
:102AB0000317AB0003135C080317AA0003135B089A
:102AC0000317A90003137C2020300C1E652D9900EC
:102AD0000D300C1E692D9900F42E0230FC000317F6
:102AE000A80128080A120313EE210A160317A80AE0
:102AF000F70003130C1E7A2D9900473003172802A4
:102B0000031D712DA80128080A120313AA210A1611
:102B10000317A80AF70003130C1E8C2D990016301A
:102B200003172802031D832D31308400831384038F
:102B3000840A03138C1E9A2D1A0880000D3000029F
:102B40000319A42D0317982D80010317A901313013
:102B5000A8000A128A15031320240A168A117A087B
:102B6000DE007908DD007808DC007708DB00031759
:102B7000A80128080A1203133D220A160317A80AFF
:102B8000F70003130C1EC22D9900203003172802F2
:102B9000031DB92D4130840003135E080317AC00F8
:102BA00003135D080317AB0003135C080317AA00A7
:102BB00003135B080317A90003137C2020300C1EAD
:102BC000DF2D99000D300C1EE32D99000317A8018D
:102BD00028080A12031367220A160317A80AF70027
:102BE00003130C1EF12D9900163003172802031D44
:102BF000E82D3130840083138403840A03138C1E70
:102C0000FF2D1A0880000D3000020319092E03174A
:102C1000FD2D80010317A9013130A8000A128A1581
:102C2000031320240A168A117A08E2007908E100C9
:102C30007808E0007708DF000317A80128080A12C7
:102C4000031382220A160317A80AF70003130C1EA7
:102C5000272E9900203003172802031D1E2E413015
:102C60008400031362080317AC0003136108031701
:102C7000AB00031360080317AA0003135F080317D0
:102C8000A90003137C2020300C1E442E99000D3027
:102C90000C1E482E9900F42EFC010317A8012808E9
:102CA0000A120313AC220A160317A80AF70003132B
:102CB0000C1E582E99002E3003172802031D4F2E8C
:102CC0000313F42E0317A80128080A120313DF22A6
:102CD0000A160317A80AF70003130C1E6D2E99009D
:102CE000063003172802031D642EA80128080A12C3
:102CF0000313EA220A160317A80AF70003130C1E8F
:102D00007F2E9900143003172802031D762EA80188
:102D100028080A12031306230A160317A80AF70045
:102D200003130C1E912E9900173003172802031D60
:102D3000882EA80128080A12031322230A16031753
:102D4000A80AF70003130C1EA32E990014300317D2
:102D50002802031D9A2EA80128080A1203133B23F8
:102D60000A160317A80AF70003130C1EB52E9900C4
:102D7000193003172802031DAC2EA80128080A12D7
:102D8000031359230A160317A80AF70003130C1E8E
:102D9000C72E9900203003172802031DBE2EA8015C
:102DA00028080A1203137E230A160317A80AF7003D
:102DB00003130C1ED92E9900203003172802031D7F
:102DC000D02EA80128080A120313A3230A160317FA
:102DD000A80AF70003130C1EEB2E990020300317EE
:102DE0002802031DE22E0313861283168612831215
:102DF0008C128A110A12292801303002FC3E031875
:102E0000672F043E6B2F0A128A159F250A168A1116
:102E100086108316861083120611831606118312FC
:102E200086118316861183120616831606128312E4
:102E30008612831686128312672F0A128A1586213C
:102E40000A168A11861083168610831206158316B9
:102E500006118312861183168611831206128316B9
:102E6000061283128612831686128312672F0020A1
:102E7000861083168610831206118316061183129C
:102E80008615831686118312061283160612831284
:102E90008612831686128312672F0A128A15A123BF
:102EA0000A168A1186148316861083120611831659
:102EB0000611831286118316861183120612831659
:102EC000061283128612831686128312672F0C1342
:102ED0008A110A1229280A148A140A158207032F54
:102EE0001D2F372F4D2F0130FA001A308400831325
:102EF0007A188317C03080000130FA001B3084003C
:102F000083137A188317F93080000130FA001C30DF
:102F1000840083137A188317A43080000130FA00EC
:102F20001D30840083137A188317B030800001307D
:102F3000FA001E30840083137A18831799308000BA
:102F40000130FA001F30840083137A1883179230FF
:102F500080000130FA002030840083137A18831730
:102F6000823080000130FA002130840083137A1807
:102F70008317F83080000130FA0022308400831378
:102F80007A188317803080000130FA0023308400E3
:102F900083137A188317903080001A3003171907AB
:0C2FA000840083170008F80003130034BD
:103000008316EE1F23286B09831203179000831683
:1030100003136C09831203179100831603136D09C0
:10302000831203179200831603136E09831203178A
:103030009300900A0319910A0319920A0319930A3B
:103040003928831603136E0883120317930083161F
:1030500003136D08831203179200831603136C0881
:10306000831203179100831603136B08831203174F
:1030700090000313A8018B1BA8178B1303171308C9
:103080008316BB00831212088316BA00831211083C
:103090008316B900831210088316B800BF01BE0161
:1030A000BD010A30BC000A128A1183120313522494
:1030B0000A168A15A81B8B17000803179400840AA8
:1030C00000089500840A00089600840A000897000A
:1030D000140899008A11031373278A157808FD00D4
:1030E000A8018B1BA8178B13031713088316BB00AB
:1030F000831212088316BA00831211088316B900CE
:10310000831210088316B800BF01BE01BD010A304A
:10311000BC000A128A118312031352240A168A155C
:10312000A81B8B177A080317930079089200780878
:103130009100770890000313A8018B1BA8178B132D
:10314000031713088316BB00831212088316BA00F4
:10315000831211088316B900831210088316B80071
:10316000BF01BE01BD010A30BC000A128A118312E0
:10317000031352240A168A15A81B8B17000803177D
:103180009400840A00089500840A00089600840AC6
:1031900000089700140899008A11031373278A15F1
:1031A0007808FE00A8018B1BA8178B1303171308C0
:1031B0008316BB00831212088316BA00831211080B
:1031C0008316B900831210088316B800BF01BE0130
:1031D000BD010A30BC000A128A1183120313522463
:1031E0000A168A15A81B8B177A080317930079080B
:1031F000920078089100770890000313A8018B1BB8
:10320000A8178B13031713088316BB008312120829
:103210008316BA00831211088316B90083121008AE
:103220008316B800BF01BE01BD010A30BC000A12FE
:103230008A118312031352240A168A15A81B8B17AE
:10324000000803179400840A00089500840A000807
:103250009600840A00089700140899008A11031345
:1032600073278A1578088316EF00EE1F5F29EE1F7B
:1032700052296E08FE3C03185F29FF3A031D5229AC
:103280006D08FE3C03185F29FF3A031D52296C08A4
:10329000FE3C03185F29FF3A031D52296B08383C96
:1032A00003185F296F08C03C031D5829BF30E80090
:1032B0006F08F93C031D5E29B930E80061296F08E9
:1032C000E80083128A150A16CD2A840183131F3061
:1032D00083050C3083169900A23098009030831239
:1032E000980083161F149F141F159F1107309C0010
:1032F0008312A901AA01AF018316E401E501E601E9
:10330000E701FC01E901FF30EA000912831294127F
:103310008316EA126A0887006A166A088700EA11AB
:103320006A088700013083129400003083169400ED
:103330001F109F141F119F111F1383121F139F171C
:1033400083169F1783121F148316EA146A088700D6
:103350000B3083129D0083160108C03904388100A8
:10336000063083128100853090008F018E014E302F
:103370009C0020309B000030F80006389200F930A5
:10338000831692006A116A088700831207110C30B5
:103390009700073083169C00050885000630F7006B
:1033A000F70BD02900001C0883120D1383169D0112
:1033B0008C16C03083128B048B1683160C170130C9
:1033C00086008030870089018801013083128600E1
:1033D00088018901B101BB01C001CA01B001831696
:1033E000E701E601E501E401EC01D830EB00023031
:1033F000ED000A128312CF270A168316EC01AC30B7
:10340000EB000230ED000A128312CF270A16831652
:10341000EC01E030EB000230ED000A128312CF27FE
:103420000A168316EC01B430EB000230ED000A12EC
:103430008312CF270A168316EB016B080A128A1132
:103440008312C8230A168A158316EB0AF700831223
:103450000C1E282A99001E3083166B02031D1D2A9C
:10346000EB016B080A128A118312EA220A168A15E6
:103470008316EB0AF70083120C1E3C2A99001430C5
:1034800083166B02031D312AEB016B080A128A11A5
:10349000831206230A168A158316EB0AF700831295
:1034A0000C1E502A9900173083166B02031D452A03
:1034B000EB016B080A128A11831222230A168A155D
:1034C0008316EB0AF70083120C1E642A990014304D
:1034D00083166B02031D592AEB016B080A128A112D
:1034E00083123B230A168A158316EB0AF700831210
:1034F0000C1E782A9900193083166B02031D6D2A61
:10350000EB016B080A128A11831259230A168A15D5
:103510008316EB0AF70083120C1E8C2A99002030C8
:1035200083166B02031D812AEB016B080A128A11B4
:1035300083127E230A168A158316EB0AF70083127C
:103540000C1EA02A9900203083166B02031D952AB9
:10355000EB016B080A128A118312A3230A168A153B
:103560008316EB0AF70083120C1EB42A9900203050
:1035700083166B02031DA92A803083129500170859
:10358000CF39970083166708EE006608ED006508DE
:0E359000EC006408EB0083120028C22A6300DE
:02400E003A3F37
:00000001FF
;PIC16F877A
;CRC=0F44  CREATED="23-May-11 11:09"
